{
  "_format": "hh-sol-artifact-1",
  "contractName": "CONTRACTSAMPLE",
  "sourceName": "contracts/contract-sample.sol",
  "abi": [
    {
      "inputs": [
        {
          "internalType": "string",
          "name": "_name",
          "type": "string"
        },
        {
          "internalType": "string",
          "name": "_symbol",
          "type": "string"
        },
        {
          "internalType": "string",
          "name": "_initBaseURI",
          "type": "string"
        },
        {
          "internalType": "string",
          "name": "_initNotRevealedUri",
          "type": "string"
        }
      ],
      "stateMutability": "nonpayable",
      "type": "constructor"
    },
    {
      "anonymous": false,
      "inputs": [
        {
          "indexed": true,
          "internalType": "address",
          "name": "owner",
          "type": "address"
        },
        {
          "indexed": true,
          "internalType": "address",
          "name": "approved",
          "type": "address"
        },
        {
          "indexed": true,
          "internalType": "uint256",
          "name": "tokenId",
          "type": "uint256"
        }
      ],
      "name": "Approval",
      "type": "event"
    },
    {
      "anonymous": false,
      "inputs": [
        {
          "indexed": true,
          "internalType": "address",
          "name": "owner",
          "type": "address"
        },
        {
          "indexed": true,
          "internalType": "address",
          "name": "operator",
          "type": "address"
        },
        {
          "indexed": false,
          "internalType": "bool",
          "name": "approved",
          "type": "bool"
        }
      ],
      "name": "ApprovalForAll",
      "type": "event"
    },
    {
      "anonymous": false,
      "inputs": [
        {
          "indexed": true,
          "internalType": "address",
          "name": "previousOwner",
          "type": "address"
        },
        {
          "indexed": true,
          "internalType": "address",
          "name": "newOwner",
          "type": "address"
        }
      ],
      "name": "OwnershipTransferred",
      "type": "event"
    },
    {
      "anonymous": false,
      "inputs": [
        {
          "indexed": true,
          "internalType": "address",
          "name": "from",
          "type": "address"
        },
        {
          "indexed": true,
          "internalType": "address",
          "name": "to",
          "type": "address"
        },
        {
          "indexed": true,
          "internalType": "uint256",
          "name": "tokenId",
          "type": "uint256"
        }
      ],
      "name": "Transfer",
      "type": "event"
    },
    {
      "inputs": [
        {
          "internalType": "address",
          "name": "",
          "type": "address"
        }
      ],
      "name": "addressMintedBalance",
      "outputs": [
        {
          "internalType": "uint256",
          "name": "",
          "type": "uint256"
        }
      ],
      "stateMutability": "view",
      "type": "function"
    },
    {
      "inputs": [
        {
          "internalType": "address",
          "name": "to",
          "type": "address"
        },
        {
          "internalType": "uint256",
          "name": "tokenId",
          "type": "uint256"
        }
      ],
      "name": "approve",
      "outputs": [],
      "stateMutability": "nonpayable",
      "type": "function"
    },
    {
      "inputs": [],
      "name": "balance",
      "outputs": [
        {
          "internalType": "uint256",
          "name": "",
          "type": "uint256"
        }
      ],
      "stateMutability": "view",
      "type": "function"
    },
    {
      "inputs": [
        {
          "internalType": "address",
          "name": "owner",
          "type": "address"
        }
      ],
      "name": "balanceOf",
      "outputs": [
        {
          "internalType": "uint256",
          "name": "",
          "type": "uint256"
        }
      ],
      "stateMutability": "view",
      "type": "function"
    },
    {
      "inputs": [],
      "name": "baseExtension",
      "outputs": [
        {
          "internalType": "string",
          "name": "",
          "type": "string"
        }
      ],
      "stateMutability": "view",
      "type": "function"
    },
    {
      "inputs": [],
      "name": "baseURI",
      "outputs": [
        {
          "internalType": "string",
          "name": "",
          "type": "string"
        }
      ],
      "stateMutability": "view",
      "type": "function"
    },
    {
      "inputs": [],
      "name": "cost",
      "outputs": [
        {
          "internalType": "uint256",
          "name": "",
          "type": "uint256"
        }
      ],
      "stateMutability": "view",
      "type": "function"
    },
    {
      "inputs": [],
      "name": "currentPhase",
      "outputs": [
        {
          "internalType": "string",
          "name": "",
          "type": "string"
        }
      ],
      "stateMutability": "view",
      "type": "function"
    },
    {
      "inputs": [],
      "name": "getAllWhitelistUsers",
      "outputs": [
        {
          "internalType": "address[]",
          "name": "",
          "type": "address[]"
        }
      ],
      "stateMutability": "view",
      "type": "function"
    },
    {
      "inputs": [
        {
          "internalType": "uint256",
          "name": "tokenId",
          "type": "uint256"
        }
      ],
      "name": "getApproved",
      "outputs": [
        {
          "internalType": "address",
          "name": "",
          "type": "address"
        }
      ],
      "stateMutability": "view",
      "type": "function"
    },
    {
      "inputs": [],
      "name": "getCurrentPhaseSupply",
      "outputs": [
        {
          "internalType": "uint256",
          "name": "",
          "type": "uint256"
        }
      ],
      "stateMutability": "view",
      "type": "function"
    },
    {
      "inputs": [
        {
          "internalType": "address",
          "name": "owner",
          "type": "address"
        },
        {
          "internalType": "address",
          "name": "operator",
          "type": "address"
        }
      ],
      "name": "isApprovedForAll",
      "outputs": [
        {
          "internalType": "bool",
          "name": "",
          "type": "bool"
        }
      ],
      "stateMutability": "view",
      "type": "function"
    },
    {
      "inputs": [
        {
          "internalType": "address",
          "name": "_user",
          "type": "address"
        }
      ],
      "name": "isWhitelisted",
      "outputs": [
        {
          "internalType": "bool",
          "name": "",
          "type": "bool"
        }
      ],
      "stateMutability": "view",
      "type": "function"
    },
    {
      "inputs": [],
      "name": "maxSupply",
      "outputs": [
        {
          "internalType": "uint256",
          "name": "",
          "type": "uint256"
        }
      ],
      "stateMutability": "view",
      "type": "function"
    },
    {
      "inputs": [
        {
          "internalType": "uint256",
          "name": "_mintQuantity",
          "type": "uint256"
        }
      ],
      "name": "mint",
      "outputs": [],
      "stateMutability": "payable",
      "type": "function"
    },
    {
      "inputs": [],
      "name": "name",
      "outputs": [
        {
          "internalType": "string",
          "name": "",
          "type": "string"
        }
      ],
      "stateMutability": "view",
      "type": "function"
    },
    {
      "inputs": [],
      "name": "nftPerAddressLimit",
      "outputs": [
        {
          "internalType": "uint256",
          "name": "",
          "type": "uint256"
        }
      ],
      "stateMutability": "view",
      "type": "function"
    },
    {
      "inputs": [],
      "name": "notRevealedUri",
      "outputs": [
        {
          "internalType": "string",
          "name": "",
          "type": "string"
        }
      ],
      "stateMutability": "view",
      "type": "function"
    },
    {
      "inputs": [],
      "name": "onlyWhitelisted",
      "outputs": [
        {
          "internalType": "bool",
          "name": "",
          "type": "bool"
        }
      ],
      "stateMutability": "view",
      "type": "function"
    },
    {
      "inputs": [],
      "name": "owner",
      "outputs": [
        {
          "internalType": "address",
          "name": "",
          "type": "address"
        }
      ],
      "stateMutability": "view",
      "type": "function"
    },
    {
      "inputs": [
        {
          "internalType": "uint256",
          "name": "tokenId",
          "type": "uint256"
        }
      ],
      "name": "ownerOf",
      "outputs": [
        {
          "internalType": "address",
          "name": "",
          "type": "address"
        }
      ],
      "stateMutability": "view",
      "type": "function"
    },
    {
      "inputs": [
        {
          "internalType": "bool",
          "name": "_state",
          "type": "bool"
        }
      ],
      "name": "pause",
      "outputs": [],
      "stateMutability": "nonpayable",
      "type": "function"
    },
    {
      "inputs": [],
      "name": "paused",
      "outputs": [
        {
          "internalType": "bool",
          "name": "",
          "type": "bool"
        }
      ],
      "stateMutability": "view",
      "type": "function"
    },
    {
      "inputs": [],
      "name": "renounceOwnership",
      "outputs": [],
      "stateMutability": "nonpayable",
      "type": "function"
    },
    {
      "inputs": [],
      "name": "reservedAddress",
      "outputs": [
        {
          "internalType": "address",
          "name": "",
          "type": "address"
        }
      ],
      "stateMutability": "view",
      "type": "function"
    },
    {
      "inputs": [],
      "name": "reservedNft",
      "outputs": [
        {
          "internalType": "uint256",
          "name": "",
          "type": "uint256"
        }
      ],
      "stateMutability": "view",
      "type": "function"
    },
    {
      "inputs": [],
      "name": "reveal",
      "outputs": [],
      "stateMutability": "nonpayable",
      "type": "function"
    },
    {
      "inputs": [],
      "name": "revealed",
      "outputs": [
        {
          "internalType": "bool",
          "name": "",
          "type": "bool"
        }
      ],
      "stateMutability": "view",
      "type": "function"
    },
    {
      "inputs": [
        {
          "internalType": "address",
          "name": "from",
          "type": "address"
        },
        {
          "internalType": "address",
          "name": "to",
          "type": "address"
        },
        {
          "internalType": "uint256",
          "name": "tokenId",
          "type": "uint256"
        }
      ],
      "name": "safeTransferFrom",
      "outputs": [],
      "stateMutability": "nonpayable",
      "type": "function"
    },
    {
      "inputs": [
        {
          "internalType": "address",
          "name": "from",
          "type": "address"
        },
        {
          "internalType": "address",
          "name": "to",
          "type": "address"
        },
        {
          "internalType": "uint256",
          "name": "tokenId",
          "type": "uint256"
        },
        {
          "internalType": "bytes",
          "name": "data",
          "type": "bytes"
        }
      ],
      "name": "safeTransferFrom",
      "outputs": [],
      "stateMutability": "nonpayable",
      "type": "function"
    },
    {
      "inputs": [
        {
          "internalType": "address",
          "name": "operator",
          "type": "address"
        },
        {
          "internalType": "bool",
          "name": "approved",
          "type": "bool"
        }
      ],
      "name": "setApprovalForAll",
      "outputs": [],
      "stateMutability": "nonpayable",
      "type": "function"
    },
    {
      "inputs": [
        {
          "internalType": "string",
          "name": "_newBaseExtension",
          "type": "string"
        }
      ],
      "name": "setBaseExtension",
      "outputs": [],
      "stateMutability": "nonpayable",
      "type": "function"
    },
    {
      "inputs": [
        {
          "internalType": "string",
          "name": "_newBaseURI",
          "type": "string"
        }
      ],
      "name": "setBaseURI",
      "outputs": [],
      "stateMutability": "nonpayable",
      "type": "function"
    },
    {
      "inputs": [
        {
          "internalType": "uint256",
          "name": "_newCost",
          "type": "uint256"
        }
      ],
      "name": "setCost",
      "outputs": [],
      "stateMutability": "nonpayable",
      "type": "function"
    },
    {
      "inputs": [
        {
          "internalType": "uint256",
          "name": "_newSupply",
          "type": "uint256"
        }
      ],
      "name": "setMaxSupply",
      "outputs": [],
      "stateMutability": "nonpayable",
      "type": "function"
    },
    {
      "inputs": [
        {
          "internalType": "uint256",
          "name": "_limit",
          "type": "uint256"
        }
      ],
      "name": "setNftPerAddressLimit",
      "outputs": [],
      "stateMutability": "nonpayable",
      "type": "function"
    },
    {
      "inputs": [
        {
          "internalType": "string",
          "name": "_notRevealedURI",
          "type": "string"
        }
      ],
      "name": "setNotRevealedURI",
      "outputs": [],
      "stateMutability": "nonpayable",
      "type": "function"
    },
    {
      "inputs": [
        {
          "internalType": "bool",
          "name": "_state",
          "type": "bool"
        }
      ],
      "name": "setOnlyWhitelisted",
      "outputs": [],
      "stateMutability": "nonpayable",
      "type": "function"
    },
    {
      "inputs": [
        {
          "internalType": "string",
          "name": "_phase",
          "type": "string"
        }
      ],
      "name": "setPhase",
      "outputs": [],
      "stateMutability": "nonpayable",
      "type": "function"
    },
    {
      "inputs": [
        {
          "internalType": "bytes4",
          "name": "interfaceId",
          "type": "bytes4"
        }
      ],
      "name": "supportsInterface",
      "outputs": [
        {
          "internalType": "bool",
          "name": "",
          "type": "bool"
        }
      ],
      "stateMutability": "view",
      "type": "function"
    },
    {
      "inputs": [],
      "name": "symbol",
      "outputs": [
        {
          "internalType": "string",
          "name": "",
          "type": "string"
        }
      ],
      "stateMutability": "view",
      "type": "function"
    },
    {
      "inputs": [
        {
          "internalType": "uint256",
          "name": "index",
          "type": "uint256"
        }
      ],
      "name": "tokenByIndex",
      "outputs": [
        {
          "internalType": "uint256",
          "name": "",
          "type": "uint256"
        }
      ],
      "stateMutability": "view",
      "type": "function"
    },
    {
      "inputs": [
        {
          "internalType": "address",
          "name": "owner",
          "type": "address"
        },
        {
          "internalType": "uint256",
          "name": "index",
          "type": "uint256"
        }
      ],
      "name": "tokenOfOwnerByIndex",
      "outputs": [
        {
          "internalType": "uint256",
          "name": "",
          "type": "uint256"
        }
      ],
      "stateMutability": "view",
      "type": "function"
    },
    {
      "inputs": [
        {
          "internalType": "uint256",
          "name": "tokenId",
          "type": "uint256"
        }
      ],
      "name": "tokenURI",
      "outputs": [
        {
          "internalType": "string",
          "name": "",
          "type": "string"
        }
      ],
      "stateMutability": "view",
      "type": "function"
    },
    {
      "inputs": [],
      "name": "totalSupply",
      "outputs": [
        {
          "internalType": "uint256",
          "name": "",
          "type": "uint256"
        }
      ],
      "stateMutability": "view",
      "type": "function"
    },
    {
      "inputs": [
        {
          "internalType": "address",
          "name": "from",
          "type": "address"
        },
        {
          "internalType": "address",
          "name": "to",
          "type": "address"
        },
        {
          "internalType": "uint256",
          "name": "tokenId",
          "type": "uint256"
        }
      ],
      "name": "transferFrom",
      "outputs": [],
      "stateMutability": "nonpayable",
      "type": "function"
    },
    {
      "inputs": [
        {
          "internalType": "address",
          "name": "newOwner",
          "type": "address"
        }
      ],
      "name": "transferOwnership",
      "outputs": [],
      "stateMutability": "nonpayable",
      "type": "function"
    },
    {
      "inputs": [
        {
          "internalType": "address",
          "name": "_owner",
          "type": "address"
        }
      ],
      "name": "walletOfOwner",
      "outputs": [
        {
          "internalType": "uint256[]",
          "name": "",
          "type": "uint256[]"
        }
      ],
      "stateMutability": "view",
      "type": "function"
    },
    {
      "inputs": [
        {
          "internalType": "address[]",
          "name": "_users",
          "type": "address[]"
        }
      ],
      "name": "whitelistUsers",
      "outputs": [],
      "stateMutability": "nonpayable",
      "type": "function"
    },
    {
      "inputs": [],
      "name": "withdraw",
      "outputs": [],
      "stateMutability": "payable",
      "type": "function"
    }
  ],
  "bytecode": "0x60806040526040518060400160405280600581526020017f2e6a736f6e000000000000000000000000000000000000000000000000000000815250600e90805190602001906200005192919062001bca565b506000601360006101000a81548160ff0219169083151502179055506000601360016101000a81548160ff0219169083151502179055506000601360026101000a81548160ff02191690831515021790555061012c60145573ff225940be64909512f8a37a4ef161595f0f294a601560006101000a81548173ffffffffffffffffffffffffffffffffffffffff021916908373ffffffffffffffffffffffffffffffffffffffff1602179055503480156200010b57600080fd5b506040516200831938038062008319833981810160405281019062000131919062001d41565b838381600090805190602001906200014b92919062001bca565b5080600190805190602001906200016492919062001bca565b505050620001876200017b6200020b60201b60201c565b6200021360201b60201c565b6200019882620002d960201b60201c565b620001a9816200030560201b60201c565b620001ef6040518060400160405280600481526020017f56564950000000000000000000000000000000000000000000000000000000008152506200033160201b60201c565b62000201600a620006c060201b60201c565b5050505062002c7e565b600033905090565b6000600a60009054906101000a900473ffffffffffffffffffffffffffffffffffffffff16905081600a60006101000a81548173ffffffffffffffffffffffffffffffffffffffff021916908373ffffffffffffffffffffffffffffffffffffffff1602179055508173ffffffffffffffffffffffffffffffffffffffff168173ffffffffffffffffffffffffffffffffffffffff167f8be0079c531659141344cd1fd0a4f28419497f9722a3daafe3b4186f6b6457e060405160405180910390a35050565b620002e962000d6a60201b60201c565b80600c90805190602001906200030192919062001bca565b5050565b6200031562000d6a60201b60201c565b80600f90805190602001906200032d92919062001bca565b5050565b6200034162000d6a60201b60201c565b8060405160200162000354919062002239565b604051602081830303815290604052805190602001206040516020016200037b90620022b0565b604051602081830303815290604052805190602001201415620004055780600d9080519060200190620003b092919062001bca565b50620003ca6701f161421c8e000062000dfb60201b60201c565b620003dc600462000e1560201b60201c565b620003ef6101f462000e2f60201b60201c565b620003ff62000e4960201b60201c565b620006bd565b8060405160200162000418919062002239565b604051602081830303815290604052805190602001206040516020016200043f906200226b565b604051602081830303815290604052805190602001201415620004db5780600d90805190602001906200047492919062001bca565b506200048e67027f7d0bdb92000062000dfb60201b60201c565b620004a0600462000e1560201b60201c565b620004b2600162000ef960201b60201c565b620004c56109c462000e2f60201b60201c565b620004d562000e4960201b60201c565b620006bc565b80604051602001620004ee919062002239565b604051602081830303815290604052805190602001206040516020016200051590620022c7565b604051602081830303815290604052805190602001201415620005b15780600d90805190602001906200054a92919062001bca565b506200056467030d98d59a96000062000dfb60201b60201c565b62000576600662000e1560201b60201c565b62000588600062000ef960201b60201c565b6200059b61138862000e2f60201b60201c565b620005ab62000e4960201b60201c565b620006bb565b80604051602001620005c4919062002239565b60405160208183030381529060405280519060200120604051602001620005eb9062002282565b604051602081830303815290604052805190602001201415620006755780600d90805190602001906200062092919062001bca565b506200063a6703782dace9d9000062000dfb60201b60201c565b6200064c600862000e1560201b60201c565b6200065f61271062000e2f60201b60201c565b6200066f62000e4960201b60201c565b620006ba565b6000620006b9576040517f08c379a0000000000000000000000000000000000000000000000000000000008152600401620006b090620024a8565b60405180910390fd5b5b5b5b5b50565b601360009054906101000a900460ff161562000713576040517f08c379a00000000000000000000000000000000000000000000000000000000081526004016200070a9062002442565b60405180910390fd5b60006200072562000f2660201b60201c565b9050600082116200076d576040517f08c379a00000000000000000000000000000000000000000000000000000000081526004016200076490620024ec565b60405180910390fd5b6000601960003373ffffffffffffffffffffffffffffffffffffffff1673ffffffffffffffffffffffffffffffffffffffff168152602001908152602001600020549050601560009054906101000a900473ffffffffffffffffffffffffffffffffffffffff1673ffffffffffffffffffffffffffffffffffffffff163373ffffffffffffffffffffffffffffffffffffffff161415620009a1576011548383620008199190620025d0565b11156200085d576040517f08c379a00000000000000000000000000000000000000000000000000000000081526004016200085490620023dc565b60405180910390fd5b600d60405160200162000871919062002252565b60405160208183030381529060405280519060200120604051602001620008989062002282565b6040516020818303038152906040528051906020012014620008f1576040517f08c379a0000000000000000000000000000000000000000000000000000000008152600401620008e89062002398565b60405180910390fd5b6014548382620009029190620025d0565b111562000946576040517f08c379a00000000000000000000000000000000000000000000000000000000081526004016200093d9062002486565b60405180910390fd5b826010546200095691906200262d565b3410156200099b576040517f08c379a0000000000000000000000000000000000000000000000000000000008152600401620009929062002464565b60405180910390fd5b62000c18565b620009b162000f3360201b60201c565b73ffffffffffffffffffffffffffffffffffffffff163373ffffffffffffffffffffffffffffffffffffffff161462000c1757600d604051602001620009f8919062002252565b6040516020818303038152906040528051906020012060405160200162000a1f9062002282565b604051602081830303815290604052805190602001201462000a9657601154838362000a4c9190620025d0565b111562000a90576040517f08c379a000000000000000000000000000000000000000000000000000000000815260040162000a8790620023dc565b60405180910390fd5b62000afb565b60145460115462000aa891906200268e565b838362000ab69190620025d0565b111562000afa576040517f08c379a000000000000000000000000000000000000000000000000000000000815260040162000af190620023dc565b60405180910390fd5b5b60011515601360029054906101000a900460ff161515141562000b6c5762000b293362000f5d60201b60201c565b62000b6b576040517f08c379a000000000000000000000000000000000000000000000000000000000815260040162000b6290620024ca565b60405180910390fd5b5b601254838262000b7d9190620025d0565b111562000bc1576040517f08c379a000000000000000000000000000000000000000000000000000000000815260040162000bb89062002376565b60405180910390fd5b8260105462000bd191906200262d565b34101562000c16576040517f08c379a000000000000000000000000000000000000000000000000000000000815260040162000c0d9062002464565b60405180910390fd5b5b5b62000c29336200101560201b60201c565b6000600190505b83811162000d5457601760003373ffffffffffffffffffffffffffffffffffffffff1673ffffffffffffffffffffffffffffffffffffffff168152602001908152602001600020600081548092919062000c8a90620027d5565b9190505550601960003373ffffffffffffffffffffffffffffffffffffffff1673ffffffffffffffffffffffffffffffffffffffff168152602001908152602001600020600081548092919062000ce190620027d5565b91905055506018600d60405162000cf9919062002252565b9081526020016040518091039020600081548092919062000d1a90620027d5565b919050555062000d3e33828562000d329190620025d0565b6200112c60201b60201c565b808062000d4b90620027d5565b91505062000c30565b5062000d656200115260201b60201c565b505050565b62000d7a6200020b60201b60201c565b73ffffffffffffffffffffffffffffffffffffffff1662000da062000f3360201b60201c565b73ffffffffffffffffffffffffffffffffffffffff161462000df9576040517f08c379a000000000000000000000000000000000000000000000000000000000815260040162000df09062002420565b60405180910390fd5b565b62000e0b62000d6a60201b60201c565b8060108190555050565b62000e2562000d6a60201b60201c565b8060128190555050565b62000e3f62000d6a60201b60201c565b8060118190555050565b60005b601a8054905081101562000ef657600060196000601a848154811062000e775762000e76620028b0565b5b9060005260206000200160009054906101000a900473ffffffffffffffffffffffffffffffffffffffff1673ffffffffffffffffffffffffffffffffffffffff1673ffffffffffffffffffffffffffffffffffffffff16815260200190815260200160002081905550808062000eed90620027d5565b91505062000e4c565b50565b62000f0962000d6a60201b60201c565b80601360026101000a81548160ff02191690831515021790555050565b6000600880549050905090565b6000600a60009054906101000a900473ffffffffffffffffffffffffffffffffffffffff16905090565b600080600090505b6016805490508110156200100a578273ffffffffffffffffffffffffffffffffffffffff166016828154811062000fa15762000fa0620028b0565b5b9060005260206000200160009054906101000a900473ffffffffffffffffffffffffffffffffffffffff1673ffffffffffffffffffffffffffffffffffffffff16141562000ff457600191505062001010565b80806200100190620027d5565b91505062000f65565b50600090505b919050565b6000805b601a80549050811015620010bd578273ffffffffffffffffffffffffffffffffffffffff16601a8281548110620010555762001054620028b0565b5b9060005260206000200160009054906101000a900473ffffffffffffffffffffffffffffffffffffffff1673ffffffffffffffffffffffffffffffffffffffff161415620010a75760019150620010bd565b8080620010b490620027d5565b91505062001019565b50806200112857601a339080600181540180825580915050600190039060005260206000200160009091909190916101000a81548173ffffffffffffffffffffffffffffffffffffffff021916908373ffffffffffffffffffffffffffffffffffffffff1602179055505b5050565b6200114e828260405180602001604052806000815250620011df60201b60201c565b5050565b60006200116462000f3360201b60201c565b73ffffffffffffffffffffffffffffffffffffffff1647604051620011899062002299565b60006040518083038185875af1925050503d8060008114620011c8576040519150601f19603f3d011682016040523d82523d6000602084013e620011cd565b606091505b5050905080620011dc57600080fd5b50565b620011f183836200124d60201b60201c565b6200120660008484846200144760201b60201c565b62001248576040517f08c379a00000000000000000000000000000000000000000000000000000000081526004016200123f9062002332565b60405180910390fd5b505050565b600073ffffffffffffffffffffffffffffffffffffffff168273ffffffffffffffffffffffffffffffffffffffff161415620012c0576040517f08c379a0000000000000000000000000000000000000000000000000000000008152600401620012b790620023fe565b60405180910390fd5b620012d1816200160160201b60201c565b1562001314576040517f08c379a00000000000000000000000000000000000000000000000000000000081526004016200130b9062002354565b60405180910390fd5b62001328600083836200166d60201b60201c565b6001600360008473ffffffffffffffffffffffffffffffffffffffff1673ffffffffffffffffffffffffffffffffffffffff16815260200190815260200160002060008282546200137a9190620025d0565b92505081905550816002600083815260200190815260200160002060006101000a81548173ffffffffffffffffffffffffffffffffffffffff021916908373ffffffffffffffffffffffffffffffffffffffff160217905550808273ffffffffffffffffffffffffffffffffffffffff16600073ffffffffffffffffffffffffffffffffffffffff167fddf252ad1be2c89b69c2b068fc378daa952ba7f163c4a11628f55a4df523b3ef60405160405180910390a46200144360008383620017b460201b60201c565b5050565b6000620014758473ffffffffffffffffffffffffffffffffffffffff16620017b960201b6200244d1760201c565b15620015f4578373ffffffffffffffffffffffffffffffffffffffff1663150b7a02620014a76200020b60201b60201c565b8786866040518563ffffffff1660e01b8152600401620014cb9493929190620022de565b602060405180830381600087803b158015620014e657600080fd5b505af19250505080156200151a57506040513d601f19601f8201168201806040525081019062001517919062001d0f565b60015b620015a3573d80600081146200154d576040519150601f19603f3d011682016040523d82523d6000602084013e62001552565b606091505b506000815114156200159b576040517f08c379a0000000000000000000000000000000000000000000000000000000008152600401620015929062002332565b60405180910390fd5b805181602001fd5b63150b7a0260e01b7bffffffffffffffffffffffffffffffffffffffffffffffffffffffff1916817bffffffffffffffffffffffffffffffffffffffffffffffffffffffff191614915050620015f9565b600190505b949350505050565b60008073ffffffffffffffffffffffffffffffffffffffff166002600084815260200190815260200160002060009054906101000a900473ffffffffffffffffffffffffffffffffffffffff1673ffffffffffffffffffffffffffffffffffffffff1614159050919050565b62001685838383620017dc60201b620024701760201c565b600073ffffffffffffffffffffffffffffffffffffffff168373ffffffffffffffffffffffffffffffffffffffff161415620016d257620016cc81620017e160201b60201c565b6200171a565b8173ffffffffffffffffffffffffffffffffffffffff168373ffffffffffffffffffffffffffffffffffffffff161462001719576200171883826200182a60201b60201c565b5b5b600073ffffffffffffffffffffffffffffffffffffffff168273ffffffffffffffffffffffffffffffffffffffff16141562001767576200176181620019a760201b60201c565b620017af565b8273ffffffffffffffffffffffffffffffffffffffff168273ffffffffffffffffffffffffffffffffffffffff1614620017ae57620017ad828262001a8360201b60201c565b5b5b505050565b505050565b6000808273ffffffffffffffffffffffffffffffffffffffff163b119050919050565b505050565b6008805490506009600083815260200190815260200160002081905550600881908060018154018082558091505060019003906000526020600020016000909190919091505550565b60006001620018448462001b0f60201b620014e91760201c565b6200185091906200268e565b905060006007600084815260200190815260200160002054905081811462001936576000600660008673ffffffffffffffffffffffffffffffffffffffff1673ffffffffffffffffffffffffffffffffffffffff168152602001908152602001600020600084815260200190815260200160002054905080600660008773ffffffffffffffffffffffffffffffffffffffff1673ffffffffffffffffffffffffffffffffffffffff168152602001908152602001600020600084815260200190815260200160002081905550816007600083815260200190815260200160002081905550505b6007600084815260200190815260200160002060009055600660008573ffffffffffffffffffffffffffffffffffffffff1673ffffffffffffffffffffffffffffffffffffffff16815260200190815260200160002060008381526020019081526020016000206000905550505050565b60006001600880549050620019bd91906200268e565b9050600060096000848152602001908152602001600020549050600060088381548110620019f057620019ef620028b0565b5b90600052602060002001549050806008838154811062001a155762001a14620028b0565b5b90600052602060002001819055508160096000838152602001908152602001600020819055506009600085815260200190815260200160002060009055600880548062001a675762001a6662002881565b5b6001900381819060005260206000200160009055905550505050565b600062001a9b8362001b0f60201b620014e91760201c565b905081600660008573ffffffffffffffffffffffffffffffffffffffff1673ffffffffffffffffffffffffffffffffffffffff168152602001908152602001600020600083815260200190815260200160002081905550806007600084815260200190815260200160002081905550505050565b60008073ffffffffffffffffffffffffffffffffffffffff168273ffffffffffffffffffffffffffffffffffffffff16141562001b83576040517f08c379a000000000000000000000000000000000000000000000000000000000815260040162001b7a90620023ba565b60405180910390fd5b600360008373ffffffffffffffffffffffffffffffffffffffff1673ffffffffffffffffffffffffffffffffffffffff168152602001908152602001600020549050919050565b82805462001bd89062002769565b90600052602060002090601f01602090048101928262001bfc576000855562001c48565b82601f1062001c1757805160ff191683800117855562001c48565b8280016001018555821562001c48579182015b8281111562001c4757825182559160200191906001019062001c2a565b5b50905062001c57919062001c5b565b5090565b5b8082111562001c7657600081600090555060010162001c5c565b5090565b600062001c9162001c8b8462002537565b6200250e565b90508281526020810184848401111562001cb05762001caf62002913565b5b62001cbd84828562002733565b509392505050565b60008151905062001cd68162002c64565b92915050565b600082601f83011262001cf45762001cf36200290e565b5b815162001d0684826020860162001c7a565b91505092915050565b60006020828403121562001d285762001d276200291d565b5b600062001d388482850162001cc5565b91505092915050565b6000806000806080858703121562001d5e5762001d5d6200291d565b5b600085015167ffffffffffffffff81111562001d7f5762001d7e62002918565b5b62001d8d8782880162001cdc565b945050602085015167ffffffffffffffff81111562001db15762001db062002918565b5b62001dbf8782880162001cdc565b935050604085015167ffffffffffffffff81111562001de35762001de262002918565b5b62001df18782880162001cdc565b925050606085015167ffffffffffffffff81111562001e155762001e1462002918565b5b62001e238782880162001cdc565b91505092959194509250565b62001e3a81620026c9565b82525050565b600062001e4d8262002582565b62001e59818562002598565b935062001e6b81856020860162002733565b62001e768162002922565b840191505092915050565b600062001e8e826200258d565b62001e9a8185620025c5565b935062001eac81856020860162002733565b80840191505092915050565b6000815462001ec78162002769565b62001ed38186620025c5565b9450600182166000811462001ef1576001811462001f035762001f3a565b60ff1983168652818601935062001f3a565b62001f0e856200256d565b60005b8381101562001f325781548189015260018201915060208101905062001f11565b838801955050505b50505092915050565b600062001f52600983620025c5565b915062001f5f8262002933565b600982019050919050565b600062001f79600683620025c5565b915062001f86826200295c565b600682019050919050565b600062001fa0603283620025b4565b915062001fad8262002985565b604082019050919050565b600062001fc7601c83620025b4565b915062001fd482620029d4565b602082019050919050565b600062001fee601c83620025b4565b915062001ffb82620029fd565b602082019050919050565b600062002015601583620025b4565b9150620020228262002a26565b602082019050919050565b60006200203c602983620025b4565b9150620020498262002a4f565b604082019050919050565b600062002063601683620025b4565b9150620020708262002a9e565b602082019050919050565b60006200208a602083620025b4565b9150620020978262002ac7565b602082019050919050565b6000620020b1602083620025b4565b9150620020be8262002af0565b602082019050919050565b6000620020d8601683620025b4565b9150620020e58262002b19565b602082019050919050565b6000620020ff600083620025a9565b91506200210c8262002b42565b600082019050919050565b600062002126601283620025b4565b9150620021338262002b45565b602082019050919050565b60006200214d601b83620025b4565b91506200215a8262002b6e565b602082019050919050565b600062002174601583620025b4565b9150620021818262002b97565b602082019050919050565b60006200219b600483620025c5565b9150620021a88262002bc0565b600482019050919050565b6000620021c2601783620025b4565b9150620021cf8262002be9565b602082019050919050565b6000620021e9600783620025c5565b9150620021f68262002c12565b600782019050919050565b600062002210601b83620025b4565b91506200221d8262002c3b565b602082019050919050565b620022338162002729565b82525050565b600062002247828462001e81565b915081905092915050565b600062002260828462001eb8565b915081905092915050565b6000620022788262001f43565b9150819050919050565b60006200228f8262001f6a565b9150819050919050565b6000620022a682620020f0565b9150819050919050565b6000620022bd826200218c565b9150819050919050565b6000620022d482620021da565b9150819050919050565b6000608082019050620022f5600083018762001e2f565b62002304602083018662001e2f565b62002313604083018562002228565b818103606083015262002327818462001e40565b905095945050505050565b600060208201905081810360008301526200234d8162001f91565b9050919050565b600060208201905081810360008301526200236f8162001fb8565b9050919050565b60006020820190508181036000830152620023918162001fdf565b9050919050565b60006020820190508181036000830152620023b38162002006565b9050919050565b60006020820190508181036000830152620023d5816200202d565b9050919050565b60006020820190508181036000830152620023f78162002054565b9050919050565b6000602082019050818103600083015262002419816200207b565b9050919050565b600060208201905081810360008301526200243b81620020a2565b9050919050565b600060208201905081810360008301526200245d81620020c9565b9050919050565b600060208201905081810360008301526200247f8162002117565b9050919050565b60006020820190508181036000830152620024a1816200213e565b9050919050565b60006020820190508181036000830152620024c38162002165565b9050919050565b60006020820190508181036000830152620024e581620021b3565b9050919050565b60006020820190508181036000830152620025078162002201565b9050919050565b60006200251a6200252d565b90506200252882826200279f565b919050565b6000604051905090565b600067ffffffffffffffff821115620025555762002554620028df565b5b620025608262002922565b9050602081019050919050565b60008190508160005260206000209050919050565b600081519050919050565b600081519050919050565b600082825260208201905092915050565b600081905092915050565b600082825260208201905092915050565b600081905092915050565b6000620025dd8262002729565b9150620025ea8362002729565b9250827fffffffffffffffffffffffffffffffffffffffffffffffffffffffffffffffff0382111562002622576200262162002823565b5b828201905092915050565b60006200263a8262002729565b9150620026478362002729565b9250817fffffffffffffffffffffffffffffffffffffffffffffffffffffffffffffffff048311821515161562002683576200268262002823565b5b828202905092915050565b60006200269b8262002729565b9150620026a88362002729565b925082821015620026be57620026bd62002823565b5b828203905092915050565b6000620026d68262002709565b9050919050565b60007fffffffff0000000000000000000000000000000000000000000000000000000082169050919050565b600073ffffffffffffffffffffffffffffffffffffffff82169050919050565b6000819050919050565b60005b838110156200275357808201518184015260208101905062002736565b8381111562002763576000848401525b50505050565b600060028204905060018216806200278257607f821691505b6020821081141562002799576200279862002852565b5b50919050565b620027aa8262002922565b810181811067ffffffffffffffff82111715620027cc57620027cb620028df565b5b80604052505050565b6000620027e28262002729565b91507fffffffffffffffffffffffffffffffffffffffffffffffffffffffffffffffff82141562002818576200281762002823565b5b600182019050919050565b7f4e487b7100000000000000000000000000000000000000000000000000000000600052601160045260246000fd5b7f4e487b7100000000000000000000000000000000000000000000000000000000600052602260045260246000fd5b7f4e487b7100000000000000000000000000000000000000000000000000000000600052603160045260246000fd5b7f4e487b7100000000000000000000000000000000000000000000000000000000600052603260045260246000fd5b7f4e487b7100000000000000000000000000000000000000000000000000000000600052604160045260246000fd5b600080fd5b600080fd5b600080fd5b600080fd5b6000601f19601f8301169050919050565b7f57484954454c4953540000000000000000000000000000000000000000000000600082015250565b7f5055424c49430000000000000000000000000000000000000000000000000000600082015250565b7f4552433732313a207472616e7366657220746f206e6f6e20455243373231526560008201527f63656976657220696d706c656d656e7465720000000000000000000000000000602082015250565b7f4552433732313a20746f6b656e20616c7265616479206d696e74656400000000600082015250565b7f6d6178204e465420706572206164647265737320657863656564656400000000600082015250565b7f7761697420666f72207075626c69632070686173650000000000000000000000600082015250565b7f4552433732313a2061646472657373207a65726f206973206e6f74206120766160008201527f6c6964206f776e65720000000000000000000000000000000000000000000000602082015250565b7f6d6178204e4654206c696d697420657863656564656400000000000000000000600082015250565b7f4552433732313a206d696e7420746f20746865207a65726f2061646472657373600082015250565b7f4f776e61626c653a2063616c6c6572206973206e6f7420746865206f776e6572600082015250565b7f74686520636f6e74726163742069732070617573656400000000000000000000600082015250565b50565b7f696e73756666696369656e742066756e64730000000000000000000000000000600082015250565b7f7265736572766564204e4654206c696d69742065786365656465640000000000600082015250565b7f696e636f727265637420696e7075742070686173650000000000000000000000600082015250565b7f5656495000000000000000000000000000000000000000000000000000000000600082015250565b7f75736572206973206e6f742077686974656c6973746564000000000000000000600082015250565b7f5052495641544500000000000000000000000000000000000000000000000000600082015250565b7f6e65656420746f206d696e74206174206c656173742031204e46540000000000600082015250565b62002c6f81620026dd565b811462002c7b57600080fd5b50565b61568b8062002c8e6000396000f3fe6080604052600436106102c95760003560e01c80636c0360eb11610175578063b88d4fde116100dc578063d5abeb0111610095578063e985e9c51161006f578063e985e9c514610aca578063edec5f2714610b07578063f2c4ce1e14610b30578063f2fde38b14610b59576102c9565b8063d5abeb0114610a4b578063da3ef23f14610a76578063e7544e9b14610a9f576102c9565b8063b88d4fde1461093d578063ba7d2c7614610966578063c668286214610991578063c87b56dd146109bc578063d0eb26b0146109f9578063d3c2151514610a22576102c9565b806395d89b411161012e57806395d89b41146108605780639c70b5121461088b578063a0712d68146108b6578063a22cb465146108d2578063a475b5dd146108fb578063b69ef8a814610912576102c9565b80636c0360eb146107625780636f8b44b01461078d57806370a08231146107b6578063715018a6146107f35780637fa7c50b1461080a5780638da5cb5b14610835576102c9565b80632f745c591161023457806344a0d68a116101ed57806355f804b3116101c757806355f804b3146106a65780635c975abb146106cf5780636352211e146106fa578063666f684314610737576102c9565b806344a0d68a146106155780634f6ccce71461063e578063518302271461067b576102c9565b80632f745c59146105025780633af32abf1461053f5780633c9527641461057c5780633ccfd60b146105a557806342842e0e146105af578063438b6300146105d8576102c9565b8063095ea7b311610286578063095ea7b3146103f257806313faede61461041b57806318160ddd1461044657806318cae269146104715780632099d5ab146104ae57806323b872dd146104d9576102c9565b806301ffc9a7146102ce57806302329a291461030b578063055ad42e1461033457806306fdde031461035f578063081812fc1461038a578063081c8c44146103c7575b600080fd5b3480156102da57600080fd5b506102f560048036038101906102f09190613e34565b610b82565b60405161030291906146ea565b60405180910390f35b34801561031757600080fd5b50610332600480360381019061032d9190613e07565b610bfc565b005b34801561034057600080fd5b50610349610c21565b6040516103569190614705565b60405180910390f35b34801561036b57600080fd5b50610374610caf565b6040516103819190614705565b60405180910390f35b34801561039657600080fd5b506103b160048036038101906103ac9190613ed7565b610d41565b6040516103be919061463f565b60405180910390f35b3480156103d357600080fd5b506103dc610d87565b6040516103e99190614705565b60405180910390f35b3480156103fe57600080fd5b5061041960048036038101906104149190613d7a565b610e15565b005b34801561042757600080fd5b50610430610f2d565b60405161043d9190614a47565b60405180910390f35b34801561045257600080fd5b5061045b610f33565b6040516104689190614a47565b60405180910390f35b34801561047d57600080fd5b5061049860048036038101906104939190613bf7565b610f40565b6040516104a59190614a47565b60405180910390f35b3480156104ba57600080fd5b506104c3610f58565b6040516104d09190614a47565b60405180910390f35b3480156104e557600080fd5b5061050060048036038101906104fb9190613c64565b610f7f565b005b34801561050e57600080fd5b5061052960048036038101906105249190613d7a565b610fdf565b6040516105369190614a47565b60405180910390f35b34801561054b57600080fd5b5061056660048036038101906105619190613bf7565b611084565b60405161057391906146ea565b60405180910390f35b34801561058857600080fd5b506105a3600480360381019061059e9190613e07565b611133565b005b6105ad611158565b005b3480156105bb57600080fd5b506105d660048036038101906105d19190613c64565b6111d8565b005b3480156105e457600080fd5b506105ff60048036038101906105fa9190613bf7565b6111f8565b60405161060c91906146c8565b60405180910390f35b34801561062157600080fd5b5061063c60048036038101906106379190613ed7565b6112a6565b005b34801561064a57600080fd5b5061066560048036038101906106609190613ed7565b6112b8565b6040516106729190614a47565b60405180910390f35b34801561068757600080fd5b50610690611329565b60405161069d91906146ea565b60405180910390f35b3480156106b257600080fd5b506106cd60048036038101906106c89190613e8e565b61133c565b005b3480156106db57600080fd5b506106e461135e565b6040516106f191906146ea565b60405180910390f35b34801561070657600080fd5b50610721600480360381019061071c9190613ed7565b611371565b60405161072e919061463f565b60405180910390f35b34801561074357600080fd5b5061074c611423565b604051610759919061463f565b60405180910390f35b34801561076e57600080fd5b50610777611449565b6040516107849190614705565b60405180910390f35b34801561079957600080fd5b506107b460048036038101906107af9190613ed7565b6114d7565b005b3480156107c257600080fd5b506107dd60048036038101906107d89190613bf7565b6114e9565b6040516107ea9190614a47565b60405180910390f35b3480156107ff57600080fd5b506108086115a1565b005b34801561081657600080fd5b5061081f6115b5565b60405161082c9190614a47565b60405180910390f35b34801561084157600080fd5b5061084a6115bb565b604051610857919061463f565b60405180910390f35b34801561086c57600080fd5b506108756115e5565b6040516108829190614705565b60405180910390f35b34801561089757600080fd5b506108a0611677565b6040516108ad91906146ea565b60405180910390f35b6108d060048036038101906108cb9190613ed7565b61168a565b005b3480156108de57600080fd5b506108f960048036038101906108f49190613d3a565b611cb7565b005b34801561090757600080fd5b50610910611ccd565b005b34801561091e57600080fd5b50610927611cf2565b6040516109349190614a47565b60405180910390f35b34801561094957600080fd5b50610964600480360381019061095f9190613cb7565b611cf8565b005b34801561097257600080fd5b5061097b611d5a565b6040516109889190614a47565b60405180910390f35b34801561099d57600080fd5b506109a6611d60565b6040516109b39190614705565b60405180910390f35b3480156109c857600080fd5b506109e360048036038101906109de9190613ed7565b611dee565b6040516109f09190614705565b60405180910390f35b348015610a0557600080fd5b50610a206004803603810190610a1b9190613ed7565b611f43565b005b348015610a2e57600080fd5b50610a496004803603810190610a449190613e8e565b611f55565b005b348015610a5757600080fd5b50610a60612229565b604051610a6d9190614a47565b60405180910390f35b348015610a8257600080fd5b50610a9d6004803603810190610a989190613e8e565b61222f565b005b348015610aab57600080fd5b50610ab4612251565b604051610ac191906146a6565b60405180910390f35b348015610ad657600080fd5b50610af16004803603810190610aec9190613c24565b6122e7565b604051610afe91906146ea565b60405180910390f35b348015610b1357600080fd5b50610b2e6004803603810190610b299190613dba565b61237b565b005b348015610b3c57600080fd5b50610b576004803603810190610b529190613e8e565b6123a7565b005b348015610b6557600080fd5b50610b806004803603810190610b7b9190613bf7565b6123c9565b005b60007f780e9d63000000000000000000000000000000000000000000000000000000007bffffffffffffffffffffffffffffffffffffffffffffffffffffffff1916827bffffffffffffffffffffffffffffffffffffffffffffffffffffffff19161480610bf55750610bf482612475565b5b9050919050565b610c04612557565b80601360006101000a81548160ff02191690831515021790555050565b600d8054610c2e90614d89565b80601f0160208091040260200160405190810160405280929190818152602001828054610c5a90614d89565b8015610ca75780601f10610c7c57610100808354040283529160200191610ca7565b820191906000526020600020905b815481529060010190602001808311610c8a57829003601f168201915b505050505081565b606060008054610cbe90614d89565b80601f0160208091040260200160405190810160405280929190818152602001828054610cea90614d89565b8015610d375780601f10610d0c57610100808354040283529160200191610d37565b820191906000526020600020905b815481529060010190602001808311610d1a57829003601f168201915b5050505050905090565b6000610d4c826125d5565b6004600083815260200190815260200160002060009054906101000a900473ffffffffffffffffffffffffffffffffffffffff169050919050565b600f8054610d9490614d89565b80601f0160208091040260200160405190810160405280929190818152602001828054610dc090614d89565b8015610e0d5780601f10610de257610100808354040283529160200191610e0d565b820191906000526020600020905b815481529060010190602001808311610df057829003601f168201915b505050505081565b6000610e2082611371565b90508073ffffffffffffffffffffffffffffffffffffffff168373ffffffffffffffffffffffffffffffffffffffff161415610e91576040517f08c379a0000000000000000000000000000000000000000000000000000000008152600401610e8890614947565b60405180910390fd5b8073ffffffffffffffffffffffffffffffffffffffff16610eb0612620565b73ffffffffffffffffffffffffffffffffffffffff161480610edf5750610ede81610ed9612620565b6122e7565b5b610f1e576040517f08c379a0000000000000000000000000000000000000000000000000000000008152600401610f1590614887565b60405180910390fd5b610f288383612628565b505050565b60105481565b6000600880549050905090565b60176020528060005260406000206000915090505481565b60006018600d604051610f6b91906145bf565b908152602001604051809103902054905090565b610f90610f8a612620565b826126e1565b610fcf576040517f08c379a0000000000000000000000000000000000000000000000000000000008152600401610fc690614a07565b60405180910390fd5b610fda838383612776565b505050565b6000610fea836114e9565b821061102b576040517f08c379a000000000000000000000000000000000000000000000000000000000815260040161102290614727565b60405180910390fd5b600660008473ffffffffffffffffffffffffffffffffffffffff1673ffffffffffffffffffffffffffffffffffffffff168152602001908152602001600020600083815260200190815260200160002054905092915050565b600080600090505b601680549050811015611128578273ffffffffffffffffffffffffffffffffffffffff16601682815481106110c4576110c3614f22565b5b9060005260206000200160009054906101000a900473ffffffffffffffffffffffffffffffffffffffff1673ffffffffffffffffffffffffffffffffffffffff16141561111557600191505061112e565b808061112090614dec565b91505061108c565b50600090505b919050565b61113b612557565b80601360026101000a81548160ff02191690831515021790555050565b60006111626115bb565b73ffffffffffffffffffffffffffffffffffffffff164760405161118590614600565b60006040518083038185875af1925050503d80600081146111c2576040519150601f19603f3d011682016040523d82523d6000602084013e6111c7565b606091505b50509050806111d557600080fd5b50565b6111f383838360405180602001604052806000815250611cf8565b505050565b60606000611205836114e9565b905060008167ffffffffffffffff81111561122357611222614f51565b5b6040519080825280602002602001820160405280156112515781602001602082028036833780820191505090505b50905060005b8281101561129b576112698582610fdf565b82828151811061127c5761127b614f22565b5b602002602001018181525050808061129390614dec565b915050611257565b508092505050919050565b6112ae612557565b8060108190555050565b60006112c2610f33565b8210611303576040517f08c379a00000000000000000000000000000000000000000000000000000000081526004016112fa906149a7565b60405180910390fd5b6008828154811061131757611316614f22565b5b90600052602060002001549050919050565b601360019054906101000a900460ff1681565b611344612557565b80600c908051906020019061135a9291906138f4565b5050565b601360009054906101000a900460ff1681565b6000806002600084815260200190815260200160002060009054906101000a900473ffffffffffffffffffffffffffffffffffffffff169050600073ffffffffffffffffffffffffffffffffffffffff168173ffffffffffffffffffffffffffffffffffffffff16141561141a576040517f08c379a000000000000000000000000000000000000000000000000000000000815260040161141190614927565b60405180910390fd5b80915050919050565b601560009054906101000a900473ffffffffffffffffffffffffffffffffffffffff1681565b600c805461145690614d89565b80601f016020809104026020016040519081016040528092919081815260200182805461148290614d89565b80156114cf5780601f106114a4576101008083540402835291602001916114cf565b820191906000526020600020905b8154815290600101906020018083116114b257829003601f168201915b505050505081565b6114df612557565b8060118190555050565b60008073ffffffffffffffffffffffffffffffffffffffff168273ffffffffffffffffffffffffffffffffffffffff16141561155a576040517f08c379a000000000000000000000000000000000000000000000000000000000815260040161155190614847565b60405180910390fd5b600360008373ffffffffffffffffffffffffffffffffffffffff1673ffffffffffffffffffffffffffffffffffffffff168152602001908152602001600020549050919050565b6115a9612557565b6115b360006129dd565b565b60145481565b6000600a60009054906101000a900473ffffffffffffffffffffffffffffffffffffffff16905090565b6060600180546115f490614d89565b80601f016020809104026020016040519081016040528092919081815260200182805461162090614d89565b801561166d5780601f106116425761010080835404028352916020019161166d565b820191906000526020600020905b81548152906001019060200180831161165057829003601f168201915b5050505050905090565b601360029054906101000a900460ff1681565b601360009054906101000a900460ff16156116da576040517f08c379a00000000000000000000000000000000000000000000000000000000081526004016116d1906148e7565b60405180910390fd5b60006116e4610f33565b905060008211611729576040517f08c379a000000000000000000000000000000000000000000000000000000000815260040161172090614a27565b60405180910390fd5b6000601960003373ffffffffffffffffffffffffffffffffffffffff1673ffffffffffffffffffffffffffffffffffffffff168152602001908152602001600020549050601560009054906101000a900473ffffffffffffffffffffffffffffffffffffffff1673ffffffffffffffffffffffffffffffffffffffff163373ffffffffffffffffffffffffffffffffffffffff1614156119455760115483836117d29190614bbe565b1115611813576040517f08c379a000000000000000000000000000000000000000000000000000000000815260040161180a90614867565b60405180910390fd5b600d60405160200161182591906145bf565b6040516020818303038152906040528051906020012060405160200161184a906145eb565b60405160208183030381529060405280519060200120146118a0576040517f08c379a000000000000000000000000000000000000000000000000000000000815260040161189790614827565b60405180910390fd5b60145483826118af9190614bbe565b11156118f0576040517f08c379a00000000000000000000000000000000000000000000000000000000081526004016118e790614987565b60405180910390fd5b826010546118fe9190614c45565b341015611940576040517f08c379a000000000000000000000000000000000000000000000000000000000815260040161193790614967565b60405180910390fd5b611b8b565b61194d6115bb565b73ffffffffffffffffffffffffffffffffffffffff163373ffffffffffffffffffffffffffffffffffffffff1614611b8a57600d60405160200161199191906145bf565b604051602081830303815290604052805190602001206040516020016119b6906145eb565b6040516020818303038152906040528051906020012014611a265760115483836119e09190614bbe565b1115611a21576040517f08c379a0000000000000000000000000000000000000000000000000000000008152600401611a1890614867565b60405180910390fd5b611a84565b601454601154611a369190614c9f565b8383611a429190614bbe565b1115611a83576040517f08c379a0000000000000000000000000000000000000000000000000000000008152600401611a7a90614867565b60405180910390fd5b5b60011515601360029054906101000a900460ff1615151415611ae957611aa933611084565b611ae8576040517f08c379a0000000000000000000000000000000000000000000000000000000008152600401611adf906149e7565b60405180910390fd5b5b6012548382611af89190614bbe565b1115611b39576040517f08c379a0000000000000000000000000000000000000000000000000000000008152600401611b30906147c7565b60405180910390fd5b82601054611b479190614c45565b341015611b89576040517f08c379a0000000000000000000000000000000000000000000000000000000008152600401611b8090614967565b60405180910390fd5b5b5b611b9433612aa3565b6000600190505b838111611ca957601760003373ffffffffffffffffffffffffffffffffffffffff1673ffffffffffffffffffffffffffffffffffffffff1681526020019081526020016000206000815480929190611bf290614dec565b9190505550601960003373ffffffffffffffffffffffffffffffffffffffff1673ffffffffffffffffffffffffffffffffffffffff1681526020019081526020016000206000815480929190611c4790614dec565b91905055506018600d604051611c5d91906145bf565b90815260200160405180910390206000815480929190611c7c90614dec565b9190505550611c96338285611c919190614bbe565b612bb0565b8080611ca190614dec565b915050611b9b565b50611cb2611158565b505050565b611cc9611cc2612620565b8383612bce565b5050565b611cd5612557565b6001601360016101000a81548160ff021916908315150217905550565b600b5481565b611d09611d03612620565b836126e1565b611d48576040517f08c379a0000000000000000000000000000000000000000000000000000000008152600401611d3f90614a07565b60405180910390fd5b611d5484848484612d3b565b50505050565b60125481565b600e8054611d6d90614d89565b80601f0160208091040260200160405190810160405280929190818152602001828054611d9990614d89565b8015611de65780601f10611dbb57610100808354040283529160200191611de6565b820191906000526020600020905b815481529060010190602001808311611dc957829003601f168201915b505050505081565b6060611df982612d97565b611e38576040517f08c379a0000000000000000000000000000000000000000000000000000000008152600401611e2f90614907565b60405180910390fd5b6000801515601360019054906101000a900460ff16151514611e6157611e5c612e03565b611eed565b600f8054611e6e90614d89565b80601f0160208091040260200160405190810160405280929190818152602001828054611e9a90614d89565b8015611ee75780601f10611ebc57610100808354040283529160200191611ee7565b820191906000526020600020905b815481529060010190602001808311611eca57829003601f168201915b50505050505b90506000815111611f0d5760405180602001604052806000815250611f3b565b80611f1784612e95565b600e604051602001611f2b9392919061458e565b6040516020818303038152906040525b915050919050565b611f4b612557565b8060128190555050565b611f5d612557565b80604051602001611f6e9190614577565b60405160208183030381529060405280519060200120604051602001611f9390614615565b604051602081830303815290604052805190602001201415611ff95780600d9080519060200190611fc59291906138f4565b50611fd76701f161421c8e00006112a6565b611fe16004611f43565b611fec6101f46114d7565b611ff4612ff6565b612226565b8060405160200161200a9190614577565b6040516020818303038152906040528051906020012060405160200161202f906145d6565b60405160208183030381529060405280519060200120141561209f5780600d90805190602001906120619291906138f4565b5061207367027f7d0bdb9200006112a6565b61207d6004611f43565b6120876001611133565b6120926109c46114d7565b61209a612ff6565b612225565b806040516020016120b09190614577565b604051602081830303815290604052805190602001206040516020016120d59061462a565b6040516020818303038152906040528051906020012014156121455780600d90805190602001906121079291906138f4565b5061211967030d98d59a9600006112a6565b6121236006611f43565b61212d6000611133565b6121386113886114d7565b612140612ff6565b612224565b806040516020016121569190614577565b6040516020818303038152906040528051906020012060405160200161217b906145eb565b6040516020818303038152906040528051906020012014156121e15780600d90805190602001906121ad9291906138f4565b506121bf6703782dace9d900006112a6565b6121c96008611f43565b6121d46127106114d7565b6121dc612ff6565b612223565b6000612222576040517f08c379a0000000000000000000000000000000000000000000000000000000008152600401612219906149c7565b60405180910390fd5b5b5b5b5b50565b60115481565b612237612557565b80600e908051906020019061224d9291906138f4565b5050565b606061225b612557565b60168054806020026020016040519081016040528092919081815260200182805480156122dd57602002820191906000526020600020905b8160009054906101000a900473ffffffffffffffffffffffffffffffffffffffff1673ffffffffffffffffffffffffffffffffffffffff1681526020019060010190808311612293575b5050505050905090565b6000600560008473ffffffffffffffffffffffffffffffffffffffff1673ffffffffffffffffffffffffffffffffffffffff16815260200190815260200160002060008373ffffffffffffffffffffffffffffffffffffffff1673ffffffffffffffffffffffffffffffffffffffff16815260200190815260200160002060009054906101000a900460ff16905092915050565b612383612557565b60166000612391919061397a565b8181601691906123a292919061399b565b505050565b6123af612557565b80600f90805190602001906123c59291906138f4565b5050565b6123d1612557565b600073ffffffffffffffffffffffffffffffffffffffff168173ffffffffffffffffffffffffffffffffffffffff161415612441576040517f08c379a000000000000000000000000000000000000000000000000000000000815260040161243890614767565b60405180910390fd5b61244a816129dd565b50565b6000808273ffffffffffffffffffffffffffffffffffffffff163b119050919050565b505050565b60007f80ac58cd000000000000000000000000000000000000000000000000000000007bffffffffffffffffffffffffffffffffffffffffffffffffffffffff1916827bffffffffffffffffffffffffffffffffffffffffffffffffffffffff1916148061254057507f5b5e139f000000000000000000000000000000000000000000000000000000007bffffffffffffffffffffffffffffffffffffffffffffffffffffffff1916827bffffffffffffffffffffffffffffffffffffffffffffffffffffffff1916145b80612550575061254f8261309f565b5b9050919050565b61255f612620565b73ffffffffffffffffffffffffffffffffffffffff1661257d6115bb565b73ffffffffffffffffffffffffffffffffffffffff16146125d3576040517f08c379a00000000000000000000000000000000000000000000000000000000081526004016125ca906148c7565b60405180910390fd5b565b6125de81612d97565b61261d576040517f08c379a000000000000000000000000000000000000000000000000000000000815260040161261490614927565b60405180910390fd5b50565b600033905090565b816004600083815260200190815260200160002060006101000a81548173ffffffffffffffffffffffffffffffffffffffff021916908373ffffffffffffffffffffffffffffffffffffffff160217905550808273ffffffffffffffffffffffffffffffffffffffff1661269b83611371565b73ffffffffffffffffffffffffffffffffffffffff167f8c5be1e5ebec7d5bd14f71427d1e84f3dd0314c0f7b2291e5b200ac8c7c3b92560405160405180910390a45050565b6000806126ed83611371565b90508073ffffffffffffffffffffffffffffffffffffffff168473ffffffffffffffffffffffffffffffffffffffff16148061272f575061272e81856122e7565b5b8061276d57508373ffffffffffffffffffffffffffffffffffffffff1661275584610d41565b73ffffffffffffffffffffffffffffffffffffffff16145b91505092915050565b8273ffffffffffffffffffffffffffffffffffffffff1661279682611371565b73ffffffffffffffffffffffffffffffffffffffff16146127ec576040517f08c379a00000000000000000000000000000000000000000000000000000000081526004016127e390614787565b60405180910390fd5b600073ffffffffffffffffffffffffffffffffffffffff168273ffffffffffffffffffffffffffffffffffffffff16141561285c576040517f08c379a0000000000000000000000000000000000000000000000000000000008152600401612853906147e7565b60405180910390fd5b612867838383613109565b612872600082612628565b6001600360008573ffffffffffffffffffffffffffffffffffffffff1673ffffffffffffffffffffffffffffffffffffffff16815260200190815260200160002060008282546128c29190614c9f565b925050819055506001600360008473ffffffffffffffffffffffffffffffffffffffff1673ffffffffffffffffffffffffffffffffffffffff16815260200190815260200160002060008282546129199190614bbe565b92505081905550816002600083815260200190815260200160002060006101000a81548173ffffffffffffffffffffffffffffffffffffffff021916908373ffffffffffffffffffffffffffffffffffffffff160217905550808273ffffffffffffffffffffffffffffffffffffffff168473ffffffffffffffffffffffffffffffffffffffff167fddf252ad1be2c89b69c2b068fc378daa952ba7f163c4a11628f55a4df523b3ef60405160405180910390a46129d883838361321d565b505050565b6000600a60009054906101000a900473ffffffffffffffffffffffffffffffffffffffff16905081600a60006101000a81548173ffffffffffffffffffffffffffffffffffffffff021916908373ffffffffffffffffffffffffffffffffffffffff1602179055508173ffffffffffffffffffffffffffffffffffffffff168173ffffffffffffffffffffffffffffffffffffffff167f8be0079c531659141344cd1fd0a4f28419497f9722a3daafe3b4186f6b6457e060405160405180910390a35050565b6000805b601a80549050811015612b42578273ffffffffffffffffffffffffffffffffffffffff16601a8281548110612adf57612ade614f22565b5b9060005260206000200160009054906101000a900473ffffffffffffffffffffffffffffffffffffffff1673ffffffffffffffffffffffffffffffffffffffff161415612b2f5760019150612b42565b8080612b3a90614dec565b915050612aa7565b5080612bac57601a339080600181540180825580915050600190039060005260206000200160009091909190916101000a81548173ffffffffffffffffffffffffffffffffffffffff021916908373ffffffffffffffffffffffffffffffffffffffff1602179055505b5050565b612bca828260405180602001604052806000815250613222565b5050565b8173ffffffffffffffffffffffffffffffffffffffff168373ffffffffffffffffffffffffffffffffffffffff161415612c3d576040517f08c379a0000000000000000000000000000000000000000000000000000000008152600401612c3490614807565b60405180910390fd5b80600560008573ffffffffffffffffffffffffffffffffffffffff1673ffffffffffffffffffffffffffffffffffffffff16815260200190815260200160002060008473ffffffffffffffffffffffffffffffffffffffff1673ffffffffffffffffffffffffffffffffffffffff16815260200190815260200160002060006101000a81548160ff0219169083151502179055508173ffffffffffffffffffffffffffffffffffffffff168373ffffffffffffffffffffffffffffffffffffffff167f17307eab39ab6107e8899845ad3d59bd9653f200f220920489ca2b5937696c3183604051612d2e91906146ea565b60405180910390a3505050565b612d46848484612776565b612d528484848461327d565b612d91576040517f08c379a0000000000000000000000000000000000000000000000000000000008152600401612d8890614747565b60405180910390fd5b50505050565b60008073ffffffffffffffffffffffffffffffffffffffff166002600084815260200190815260200160002060009054906101000a900473ffffffffffffffffffffffffffffffffffffffff1673ffffffffffffffffffffffffffffffffffffffff1614159050919050565b6060600c8054612e1290614d89565b80601f0160208091040260200160405190810160405280929190818152602001828054612e3e90614d89565b8015612e8b5780601f10612e6057610100808354040283529160200191612e8b565b820191906000526020600020905b815481529060010190602001808311612e6e57829003601f168201915b5050505050905090565b60606000821415612edd576040518060400160405280600181526020017f30000000000000000000000000000000000000000000000000000000000000008152509050612ff1565b600082905060005b60008214612f0f578080612ef890614dec565b915050600a82612f089190614c14565b9150612ee5565b60008167ffffffffffffffff811115612f2b57612f2a614f51565b5b6040519080825280601f01601f191660200182016040528015612f5d5781602001600182028036833780820191505090505b5090505b60008514612fea57600182612f769190614c9f565b9150600a85612f859190614e35565b6030612f919190614bbe565b60f81b818381518110612fa757612fa6614f22565b5b60200101907effffffffffffffffffffffffffffffffffffffffffffffffffffffffffffff1916908160001a905350600a85612fe39190614c14565b9450612f61565b8093505050505b919050565b60005b601a8054905081101561309c57600060196000601a84815481106130205761301f614f22565b5b9060005260206000200160009054906101000a900473ffffffffffffffffffffffffffffffffffffffff1673ffffffffffffffffffffffffffffffffffffffff1673ffffffffffffffffffffffffffffffffffffffff16815260200190815260200160002081905550808061309490614dec565b915050612ff9565b50565b60007f01ffc9a7000000000000000000000000000000000000000000000000000000007bffffffffffffffffffffffffffffffffffffffffffffffffffffffff1916827bffffffffffffffffffffffffffffffffffffffffffffffffffffffff1916149050919050565b613114838383612470565b600073ffffffffffffffffffffffffffffffffffffffff168373ffffffffffffffffffffffffffffffffffffffff1614156131575761315281613414565b613196565b8173ffffffffffffffffffffffffffffffffffffffff168373ffffffffffffffffffffffffffffffffffffffff161461319557613194838261345d565b5b5b600073ffffffffffffffffffffffffffffffffffffffff168273ffffffffffffffffffffffffffffffffffffffff1614156131d9576131d4816135ca565b613218565b8273ffffffffffffffffffffffffffffffffffffffff168273ffffffffffffffffffffffffffffffffffffffff161461321757613216828261369b565b5b5b505050565b505050565b61322c838361371a565b613239600084848461327d565b613278576040517f08c379a000000000000000000000000000000000000000000000000000000000815260040161326f90614747565b60405180910390fd5b505050565b600061329e8473ffffffffffffffffffffffffffffffffffffffff1661244d565b15613407578373ffffffffffffffffffffffffffffffffffffffff1663150b7a026132c7612620565b8786866040518563ffffffff1660e01b81526004016132e9949392919061465a565b602060405180830381600087803b15801561330357600080fd5b505af192505050801561333457506040513d601f19601f820116820180604052508101906133319190613e61565b60015b6133b7573d8060008114613364576040519150601f19603f3d011682016040523d82523d6000602084013e613369565b606091505b506000815114156133af576040517f08c379a00000000000000000000000000000000000000000000000000000000081526004016133a690614747565b60405180910390fd5b805181602001fd5b63150b7a0260e01b7bffffffffffffffffffffffffffffffffffffffffffffffffffffffff1916817bffffffffffffffffffffffffffffffffffffffffffffffffffffffff19161491505061340c565b600190505b949350505050565b6008805490506009600083815260200190815260200160002081905550600881908060018154018082558091505060019003906000526020600020016000909190919091505550565b6000600161346a846114e9565b6134749190614c9f565b9050600060076000848152602001908152602001600020549050818114613559576000600660008673ffffffffffffffffffffffffffffffffffffffff1673ffffffffffffffffffffffffffffffffffffffff168152602001908152602001600020600084815260200190815260200160002054905080600660008773ffffffffffffffffffffffffffffffffffffffff1673ffffffffffffffffffffffffffffffffffffffff168152602001908152602001600020600084815260200190815260200160002081905550816007600083815260200190815260200160002081905550505b6007600084815260200190815260200160002060009055600660008573ffffffffffffffffffffffffffffffffffffffff1673ffffffffffffffffffffffffffffffffffffffff16815260200190815260200160002060008381526020019081526020016000206000905550505050565b600060016008805490506135de9190614c9f565b905060006009600084815260200190815260200160002054905060006008838154811061360e5761360d614f22565b5b9060005260206000200154905080600883815481106136305761362f614f22565b5b90600052602060002001819055508160096000838152602001908152602001600020819055506009600085815260200190815260200160002060009055600880548061367f5761367e614ef3565b5b6001900381819060005260206000200160009055905550505050565b60006136a6836114e9565b905081600660008573ffffffffffffffffffffffffffffffffffffffff1673ffffffffffffffffffffffffffffffffffffffff168152602001908152602001600020600083815260200190815260200160002081905550806007600084815260200190815260200160002081905550505050565b600073ffffffffffffffffffffffffffffffffffffffff168273ffffffffffffffffffffffffffffffffffffffff16141561378a576040517f08c379a0000000000000000000000000000000000000000000000000000000008152600401613781906148a7565b60405180910390fd5b61379381612d97565b156137d3576040517f08c379a00000000000000000000000000000000000000000000000000000000081526004016137ca906147a7565b60405180910390fd5b6137df60008383613109565b6001600360008473ffffffffffffffffffffffffffffffffffffffff1673ffffffffffffffffffffffffffffffffffffffff168152602001908152602001600020600082825461382f9190614bbe565b92505081905550816002600083815260200190815260200160002060006101000a81548173ffffffffffffffffffffffffffffffffffffffff021916908373ffffffffffffffffffffffffffffffffffffffff160217905550808273ffffffffffffffffffffffffffffffffffffffff16600073ffffffffffffffffffffffffffffffffffffffff167fddf252ad1be2c89b69c2b068fc378daa952ba7f163c4a11628f55a4df523b3ef60405160405180910390a46138f06000838361321d565b5050565b82805461390090614d89565b90600052602060002090601f0160209004810192826139225760008555613969565b82601f1061393b57805160ff1916838001178555613969565b82800160010185558215613969579182015b8281111561396857825182559160200191906001019061394d565b5b5090506139769190613a3b565b5090565b50805460008255906000526020600020908101906139989190613a3b565b50565b828054828255906000526020600020908101928215613a2a579160200282015b82811115613a2957823573ffffffffffffffffffffffffffffffffffffffff168260006101000a81548173ffffffffffffffffffffffffffffffffffffffff021916908373ffffffffffffffffffffffffffffffffffffffff160217905550916020019190600101906139bb565b5b509050613a379190613a3b565b5090565b5b80821115613a54576000816000905550600101613a3c565b5090565b6000613a6b613a6684614a87565b614a62565b905082815260208101848484011115613a8757613a86614f8f565b5b613a92848285614d47565b509392505050565b6000613aad613aa884614ab8565b614a62565b905082815260208101848484011115613ac957613ac8614f8f565b5b613ad4848285614d47565b509392505050565b600081359050613aeb816155f9565b92915050565b60008083601f840112613b0757613b06614f85565b5b8235905067ffffffffffffffff811115613b2457613b23614f80565b5b602083019150836020820283011115613b4057613b3f614f8a565b5b9250929050565b600081359050613b5681615610565b92915050565b600081359050613b6b81615627565b92915050565b600081519050613b8081615627565b92915050565b600082601f830112613b9b57613b9a614f85565b5b8135613bab848260208601613a58565b91505092915050565b600082601f830112613bc957613bc8614f85565b5b8135613bd9848260208601613a9a565b91505092915050565b600081359050613bf18161563e565b92915050565b600060208284031215613c0d57613c0c614f99565b5b6000613c1b84828501613adc565b91505092915050565b60008060408385031215613c3b57613c3a614f99565b5b6000613c4985828601613adc565b9250506020613c5a85828601613adc565b9150509250929050565b600080600060608486031215613c7d57613c7c614f99565b5b6000613c8b86828701613adc565b9350506020613c9c86828701613adc565b9250506040613cad86828701613be2565b9150509250925092565b60008060008060808587031215613cd157613cd0614f99565b5b6000613cdf87828801613adc565b9450506020613cf087828801613adc565b9350506040613d0187828801613be2565b925050606085013567ffffffffffffffff811115613d2257613d21614f94565b5b613d2e87828801613b86565b91505092959194509250565b60008060408385031215613d5157613d50614f99565b5b6000613d5f85828601613adc565b9250506020613d7085828601613b47565b9150509250929050565b60008060408385031215613d9157613d90614f99565b5b6000613d9f85828601613adc565b9250506020613db085828601613be2565b9150509250929050565b60008060208385031215613dd157613dd0614f99565b5b600083013567ffffffffffffffff811115613def57613dee614f94565b5b613dfb85828601613af1565b92509250509250929050565b600060208284031215613e1d57613e1c614f99565b5b6000613e2b84828501613b47565b91505092915050565b600060208284031215613e4a57613e49614f99565b5b6000613e5884828501613b5c565b91505092915050565b600060208284031215613e7757613e76614f99565b5b6000613e8584828501613b71565b91505092915050565b600060208284031215613ea457613ea3614f99565b5b600082013567ffffffffffffffff811115613ec257613ec1614f94565b5b613ece84828501613bb4565b91505092915050565b600060208284031215613eed57613eec614f99565b5b6000613efb84828501613be2565b91505092915050565b6000613f108383613f34565b60208301905092915050565b6000613f288383614559565b60208301905092915050565b613f3d81614cd3565b82525050565b613f4c81614cd3565b82525050565b6000613f5d82614b1e565b613f678185614b64565b9350613f7283614ae9565b8060005b83811015613fa3578151613f8a8882613f04565b9750613f9583614b4a565b925050600181019050613f76565b5085935050505092915050565b6000613fbb82614b29565b613fc58185614b75565b9350613fd083614af9565b8060005b83811015614001578151613fe88882613f1c565b9750613ff383614b57565b925050600181019050613fd4565b5085935050505092915050565b61401781614ce5565b82525050565b600061402882614b34565b6140328185614b86565b9350614042818560208601614d56565b61404b81614f9e565b840191505092915050565b600061406182614b3f565b61406b8185614ba2565b935061407b818560208601614d56565b61408481614f9e565b840191505092915050565b600061409a82614b3f565b6140a48185614bb3565b93506140b4818560208601614d56565b80840191505092915050565b600081546140cd81614d89565b6140d78186614bb3565b945060018216600081146140f2576001811461410357614136565b60ff19831686528186019350614136565b61410c85614b09565b60005b8381101561412e5781548189015260018201915060208101905061410f565b838801955050505b50505092915050565b600061414c600983614bb3565b915061415782614faf565b600982019050919050565b600061416f600683614bb3565b915061417a82614fd8565b600682019050919050565b6000614192602b83614ba2565b915061419d82615001565b604082019050919050565b60006141b5603283614ba2565b91506141c082615050565b604082019050919050565b60006141d8602683614ba2565b91506141e38261509f565b604082019050919050565b60006141fb602583614ba2565b9150614206826150ee565b604082019050919050565b600061421e601c83614ba2565b91506142298261513d565b602082019050919050565b6000614241601c83614ba2565b915061424c82615166565b602082019050919050565b6000614264602483614ba2565b915061426f8261518f565b604082019050919050565b6000614287601983614ba2565b9150614292826151de565b602082019050919050565b60006142aa601583614ba2565b91506142b582615207565b602082019050919050565b60006142cd602983614ba2565b91506142d882615230565b604082019050919050565b60006142f0601683614ba2565b91506142fb8261527f565b602082019050919050565b6000614313603e83614ba2565b915061431e826152a8565b604082019050919050565b6000614336602083614ba2565b9150614341826152f7565b602082019050919050565b6000614359602083614ba2565b915061436482615320565b602082019050919050565b600061437c601683614ba2565b915061438782615349565b602082019050919050565b600061439f602f83614ba2565b91506143aa82615372565b604082019050919050565b60006143c2601883614ba2565b91506143cd826153c1565b602082019050919050565b60006143e5602183614ba2565b91506143f0826153ea565b604082019050919050565b6000614408600083614b97565b915061441382615439565b600082019050919050565b600061442b601283614ba2565b91506144368261543c565b602082019050919050565b600061444e601b83614ba2565b915061445982615465565b602082019050919050565b6000614471602c83614ba2565b915061447c8261548e565b604082019050919050565b6000614494601583614ba2565b915061449f826154dd565b602082019050919050565b60006144b7600483614bb3565b91506144c282615506565b600482019050919050565b60006144da601783614ba2565b91506144e58261552f565b602082019050919050565b60006144fd602e83614ba2565b915061450882615558565b604082019050919050565b6000614520600783614bb3565b915061452b826155a7565b600782019050919050565b6000614543601b83614ba2565b915061454e826155d0565b602082019050919050565b61456281614d3d565b82525050565b61457181614d3d565b82525050565b6000614583828461408f565b915081905092915050565b600061459a828661408f565b91506145a6828561408f565b91506145b282846140c0565b9150819050949350505050565b60006145cb82846140c0565b915081905092915050565b60006145e18261413f565b9150819050919050565b60006145f682614162565b9150819050919050565b600061460b826143fb565b9150819050919050565b6000614620826144aa565b9150819050919050565b600061463582614513565b9150819050919050565b60006020820190506146546000830184613f43565b92915050565b600060808201905061466f6000830187613f43565b61467c6020830186613f43565b6146896040830185614568565b818103606083015261469b818461401d565b905095945050505050565b600060208201905081810360008301526146c08184613f52565b905092915050565b600060208201905081810360008301526146e28184613fb0565b905092915050565b60006020820190506146ff600083018461400e565b92915050565b6000602082019050818103600083015261471f8184614056565b905092915050565b6000602082019050818103600083015261474081614185565b9050919050565b60006020820190508181036000830152614760816141a8565b9050919050565b60006020820190508181036000830152614780816141cb565b9050919050565b600060208201905081810360008301526147a0816141ee565b9050919050565b600060208201905081810360008301526147c081614211565b9050919050565b600060208201905081810360008301526147e081614234565b9050919050565b6000602082019050818103600083015261480081614257565b9050919050565b600060208201905081810360008301526148208161427a565b9050919050565b600060208201905081810360008301526148408161429d565b9050919050565b60006020820190508181036000830152614860816142c0565b9050919050565b60006020820190508181036000830152614880816142e3565b9050919050565b600060208201905081810360008301526148a081614306565b9050919050565b600060208201905081810360008301526148c081614329565b9050919050565b600060208201905081810360008301526148e08161434c565b9050919050565b600060208201905081810360008301526149008161436f565b9050919050565b6000602082019050818103600083015261492081614392565b9050919050565b60006020820190508181036000830152614940816143b5565b9050919050565b60006020820190508181036000830152614960816143d8565b9050919050565b600060208201905081810360008301526149808161441e565b9050919050565b600060208201905081810360008301526149a081614441565b9050919050565b600060208201905081810360008301526149c081614464565b9050919050565b600060208201905081810360008301526149e081614487565b9050919050565b60006020820190508181036000830152614a00816144cd565b9050919050565b60006020820190508181036000830152614a20816144f0565b9050919050565b60006020820190508181036000830152614a4081614536565b9050919050565b6000602082019050614a5c6000830184614568565b92915050565b6000614a6c614a7d565b9050614a788282614dbb565b919050565b6000604051905090565b600067ffffffffffffffff821115614aa257614aa1614f51565b5b614aab82614f9e565b9050602081019050919050565b600067ffffffffffffffff821115614ad357614ad2614f51565b5b614adc82614f9e565b9050602081019050919050565b6000819050602082019050919050565b6000819050602082019050919050565b60008190508160005260206000209050919050565b600081519050919050565b600081519050919050565b600081519050919050565b600081519050919050565b6000602082019050919050565b6000602082019050919050565b600082825260208201905092915050565b600082825260208201905092915050565b600082825260208201905092915050565b600081905092915050565b600082825260208201905092915050565b600081905092915050565b6000614bc982614d3d565b9150614bd483614d3d565b9250827fffffffffffffffffffffffffffffffffffffffffffffffffffffffffffffffff03821115614c0957614c08614e66565b5b828201905092915050565b6000614c1f82614d3d565b9150614c2a83614d3d565b925082614c3a57614c39614e95565b5b828204905092915050565b6000614c5082614d3d565b9150614c5b83614d3d565b9250817fffffffffffffffffffffffffffffffffffffffffffffffffffffffffffffffff0483118215151615614c9457614c93614e66565b5b828202905092915050565b6000614caa82614d3d565b9150614cb583614d3d565b925082821015614cc857614cc7614e66565b5b828203905092915050565b6000614cde82614d1d565b9050919050565b60008115159050919050565b60007fffffffff0000000000000000000000000000000000000000000000000000000082169050919050565b600073ffffffffffffffffffffffffffffffffffffffff82169050919050565b6000819050919050565b82818337600083830152505050565b60005b83811015614d74578082015181840152602081019050614d59565b83811115614d83576000848401525b50505050565b60006002820490506001821680614da157607f821691505b60208210811415614db557614db4614ec4565b5b50919050565b614dc482614f9e565b810181811067ffffffffffffffff82111715614de357614de2614f51565b5b80604052505050565b6000614df782614d3d565b91507fffffffffffffffffffffffffffffffffffffffffffffffffffffffffffffffff821415614e2a57614e29614e66565b5b600182019050919050565b6000614e4082614d3d565b9150614e4b83614d3d565b925082614e5b57614e5a614e95565b5b828206905092915050565b7f4e487b7100000000000000000000000000000000000000000000000000000000600052601160045260246000fd5b7f4e487b7100000000000000000000000000000000000000000000000000000000600052601260045260246000fd5b7f4e487b7100000000000000000000000000000000000000000000000000000000600052602260045260246000fd5b7f4e487b7100000000000000000000000000000000000000000000000000000000600052603160045260246000fd5b7f4e487b7100000000000000000000000000000000000000000000000000000000600052603260045260246000fd5b7f4e487b7100000000000000000000000000000000000000000000000000000000600052604160045260246000fd5b600080fd5b600080fd5b600080fd5b600080fd5b600080fd5b600080fd5b6000601f19601f8301169050919050565b7f57484954454c4953540000000000000000000000000000000000000000000000600082015250565b7f5055424c49430000000000000000000000000000000000000000000000000000600082015250565b7f455243373231456e756d657261626c653a206f776e657220696e646578206f7560008201527f74206f6620626f756e6473000000000000000000000000000000000000000000602082015250565b7f4552433732313a207472616e7366657220746f206e6f6e20455243373231526560008201527f63656976657220696d706c656d656e7465720000000000000000000000000000602082015250565b7f4f776e61626c653a206e6577206f776e657220697320746865207a65726f206160008201527f6464726573730000000000000000000000000000000000000000000000000000602082015250565b7f4552433732313a207472616e736665722066726f6d20696e636f72726563742060008201527f6f776e6572000000000000000000000000000000000000000000000000000000602082015250565b7f4552433732313a20746f6b656e20616c7265616479206d696e74656400000000600082015250565b7f6d6178204e465420706572206164647265737320657863656564656400000000600082015250565b7f4552433732313a207472616e7366657220746f20746865207a65726f2061646460008201527f7265737300000000000000000000000000000000000000000000000000000000602082015250565b7f4552433732313a20617070726f766520746f2063616c6c657200000000000000600082015250565b7f7761697420666f72207075626c69632070686173650000000000000000000000600082015250565b7f4552433732313a2061646472657373207a65726f206973206e6f74206120766160008201527f6c6964206f776e65720000000000000000000000000000000000000000000000602082015250565b7f6d6178204e4654206c696d697420657863656564656400000000000000000000600082015250565b7f4552433732313a20617070726f76652063616c6c6572206973206e6f7420746f60008201527f6b656e206f776e6572206e6f7220617070726f76656420666f7220616c6c0000602082015250565b7f4552433732313a206d696e7420746f20746865207a65726f2061646472657373600082015250565b7f4f776e61626c653a2063616c6c6572206973206e6f7420746865206f776e6572600082015250565b7f74686520636f6e74726163742069732070617573656400000000000000000000600082015250565b7f4552433732314d657461646174613a2055524920717565727920666f72206e6f60008201527f6e6578697374656e7420746f6b656e0000000000000000000000000000000000602082015250565b7f4552433732313a20696e76616c696420746f6b656e2049440000000000000000600082015250565b7f4552433732313a20617070726f76616c20746f2063757272656e74206f776e6560008201527f7200000000000000000000000000000000000000000000000000000000000000602082015250565b50565b7f696e73756666696369656e742066756e64730000000000000000000000000000600082015250565b7f7265736572766564204e4654206c696d69742065786365656465640000000000600082015250565b7f455243373231456e756d657261626c653a20676c6f62616c20696e646578206f60008201527f7574206f6620626f756e64730000000000000000000000000000000000000000602082015250565b7f696e636f727265637420696e7075742070686173650000000000000000000000600082015250565b7f5656495000000000000000000000000000000000000000000000000000000000600082015250565b7f75736572206973206e6f742077686974656c6973746564000000000000000000600082015250565b7f4552433732313a2063616c6c6572206973206e6f7420746f6b656e206f776e6560008201527f72206e6f7220617070726f766564000000000000000000000000000000000000602082015250565b7f5052495641544500000000000000000000000000000000000000000000000000600082015250565b7f6e65656420746f206d696e74206174206c656173742031204e46540000000000600082015250565b61560281614cd3565b811461560d57600080fd5b50565b61561981614ce5565b811461562457600080fd5b50565b61563081614cf1565b811461563b57600080fd5b50565b61564781614d3d565b811461565257600080fd5b5056fea2646970667358221220775a6b7f14e72f11d5537e30ab1ff5c4b3ff09f8b65246a78d37eeed154e056b64736f6c63430008070033",
  "linkReferences": {},
  "deployedLinkReferences": {}
}